:020000040800F2
:1000000000020010016B0008F57A0008097B000867
:100010004D7B0008E17B00088D7C0008000000009B
:10002000000000000000000000000000857D0008C6
:10003000197D000800000000317D00085D7D00088A
:10004000256B0008256B0008256B0008256B000850
:10005000256B0008256B0008256B0008256B000840
:10006000256B0008256B0008256B0008256B000830
:10007000256B0008256B0008256B0008256B000820
:10008000256B0008256B0008256B0008256B000810
:10009000256B0008256B0008256B0008256B000800
:1000A000256B0008256B0008256B0008256B0008F0
:1000B000256B0008256B0008256B0008256B0008E0
:1000C000256B0008256B0008256B0008256B0008D0
:1000D000256B0008256B0008F5760008256B0008E5
:1000E000256B0008256B0008256B0008256B0008B0
:1000F000256B0008256B0008256B0008256B0008A0
:10010000256B0008256B0008256B0008256B00088F
:10011000256B0008256B0008256B0008256B00087F
:10012000256B0008256B0008256B0008256B00086F
:10013000256B0008256B0008256B0008256B00085F
:10014000256B0008256B0008256B0008256B00084F
:10015000256B0008256B0008256B0008256B00083F
:10016000256B0008256B0008256B0008256B00082F
:10017000256B0008256B0008256B0008256B00081F
:10018000256B0008256B00081EB408F05BFC1EBC44
:1001900005F064FC08B5012006F0F8FF08B58C46B0
:1001A0008646134602207146624606F0EDFF08BD02
:1001B00040F21823C1F20003186870470FB40C4BCB
:1001C00010B582B01C6824B1A36913B9204602F0AF
:1001D00025FC0DF1140CA1682046049A6346CDF865
:1001E00004C000F06DFD02B0BDE8104004B07047DF
:1001F000180200100EB410B5044683B018B183691C
:100200000BB902F00BFC0DF1180CA1682046059A01
:100210006346CDF804C000F053FD03B0BDE81040C4
:1002200003B070470FB410B582B00B4C206818B102
:1002300083690BB902F0F2FB21680DF1140C049AEA
:1002400063460846CDF804C0496801F0C3FB02B01C
:10025000BDE8104004B07047180200100EB410B58D
:10026000044683B018B183690BB902F0D7FB0DF1D6
:10027000180C61682046059A6346CDF804C001F069
:10028000A9FB03B0BDE8104003B0704708B540F2C9
:100290001823C1F200030146186800F00BF808BDEE
:1002A00008B540F21823C1F200030146186802F0B5
:1002B000C3FE08BD2DE9F04F01F10B04162C83B0ED
:1002C000054635D924F00704E30F8C422CBF1946AC
:1002D00043F00101002934D1284606F075FFB4F53A
:1002E000FC7F33D2DFF83C654FEAD40E06EBCE0339
:1002F0003746D3F80C80984500F00B82D8F80430CC
:100300002846D8F80C2023F00303D8F808104344FB
:10031000D3F804C008F10808CA604CF0010C9160E1
:10032000C3F804C006F054FF404603B0BDE8F08FA8
:10033000002310248C422CBF194643F001010029F0
:10034000CAD00C234FF000082B60EDE75FEA542E73
:1003500004BF4FEAD40E4FEACE0140F09080DFF8A0
:10036000C46471183746D1F80C80414507D10FE0BD
:10037000002A80F27381D8F80C80414508D0D8F863
:10038000043023F003031A1B0F2AF1DD0EF1FF3EA8
:100390000EF1010EDFF89034D3F80880434508BF12
:1003A000796828D0D8F8041021F003010A1B0F2A1D
:1003B00000F39281002ADB609B6080F29A80B1F5A5
:1003C000007F80F06281C9084FF0010CD7F804A0CB
:1003D00007EBC10289100CFA01FCC8F80C209068E8
:1003E0004CEA0A0C6146C7F804C0C8F80800C0F817
:1003F0000C80C2F808804FF0010C4FEAAE020CFAF4
:1004000002FC8C4500F2818011EA0C0F08D12EF01D
:10041000030E4FEA4C0C0EF1040E11EA0C0FF8D04B
:1004200007EBCE09F246C846D8F80C20904507D114
:1004300067E1002980F27881D268904500F06181FF
:10044000506820F00300011B0F29F2DD9046D2F81E
:100450000CC0101941F0010658F808EF44F00104EF
:1004600041505460CEF80CC0CCF808E0D8609860D9
:10047000C36083604660284606F0AAFE54E7BEF1DA
:10048000040F9EBF4FEA941E0EF1380E4FEACE01C4
:100490007FF665AFBEF1140F9CBF0EF15B0E4FEA05
:1004A000CE017FF65CAFBEF1540F9EBF4FEA143E03
:1004B0000EF16E0E4FEACE017FF651AFBEF5AA7F68
:1004C0009EBF4FEAD43E0EF1770E4FEACE017FF683
:1004D00046AF40F254539E4595BF4FEA944E4FF4B9
:1004E0007C710EF17C0E4FF07E0E98BF4FEACE016C
:1004F00035E708EB0103284608F108085A6842F07E
:1005000001025A6006F064FE0EE7D7F80880D8F8BA
:1005100004A02AF0030AC4EB0A02544594BF002346
:1005200001230F2AD8BF43F00103002B00F09D8068
:10053000DFF8F8922846D6F80834D9F800B0B3F1BD
:10054000FF3F0BF1100BA3441FBF0BF57E6B0BF1AC
:100550001F0B2BF47E6B2BF01F0B594606F01AFE77
:10056000B0F1FF3F034600F00D8108EB0A01814224
:1005700000F20581D9F8042081425A44C9F80420C8
:1005800000F01E81D6F808C4BCF1FF3F00F03281B4
:100590008218511AC9F8041010F0070608BF4FF46A
:1005A000805604D0C6F10806831906F5805603EB81
:1005B0000B02284601931205120DB61A314606F0B9
:1005C000E9FD019BB0F1FF3F00F00981C11A8919D3
:1005D00041F00101D9F80420BB60B218B845596058
:1005E000C9F8042017D0BAF10F0F40F2DE80AAF14B
:1005F0000C03D8F804C023F00703052008EB03011F
:100600000F2B0CF0010C43EA0C0CC8F804C0486036
:10061000886000F2E780D9F82C309A4284BF834B7F
:10062000DA62D9F830309A4240F2AC807F4BD7F88A
:1006300008801A63D8F8043023F003031A1B9C4285
:1006400094BF002301230F2AD8BF43F0010363B1F5
:1006500028464FF0000806F0BBFD65E64344D8F895
:100660000C20D8F80810284652E608EB040342F0A4
:10067000010244F001042846C8F8044008F10808C3
:100680005A60BB6006F0A4FD4EE64A0A042A5AD915
:10069000142A98BF02F15B0004D9542A00F28A8020
:1006A000080B6E3007EBC00CDCF80820624503D164
:1006B0006FE09268944504D0506820F003008142B6
:1006C000F7D3D068C8F80C00C8F808207968C2F8D9
:1006D0000C80C0F808808EE608EB040142F0010CA3
:1006E000D96044F0010499602846C8F8044008F134
:1006F0000808CB608B60C1F804C08A5006F068FD22
:1007000012E60AF1010A1AF0030F1FD008F10808D7
:100710008AE608F10803D3F80C80434508BF0EF1C0
:10072000020E3FF437AEE9E590461018D36858F84A
:10073000082F4168D36041F001019A60416028466A
:1007400006F046FDF0E588093830ABE71EF0030FF0
:100750004A460EF1FF3E58D052F808999145F5D01F
:100760007A684FEA4C0C94453FF6CFAEBCF1000FCF
:100770003FF4CBAE1CEA020F4CD0D64650E6B8454B
:100780003FF4F8AED7F80880D8F8043023F003031C
:1007900054E74FF0010AD7F804C0811010460AFA56
:1007A00001F14CEA010179608CE7984601225A6018
:1007B000002343E7B2F5AA7F20D8C80B773071E752
:1007C0004FEA015C4FEA1C5CBCF1000F7FF4DAAE2B
:1007D000BB680BEB0A0141F0010159601BE70121E5
:1007E0000026F7E608F10801284602F025FC0F4B29
:1007F0005A6810E70B4AC2F80804CDE640F254509C
:1008000082420CD8880C7C304CE77A6822EA0C02D1
:100810007A60A5E74FEA4C0C0AF1040AAAE77E20A9
:1008200040E700BF7C02001084020010F0070010B7
:100830000F2A30B404460D4636D941EA000313F0BE
:10084000030F32D18C4603461446DCF80050103CAE
:100850001D60DCF804505D60DCF808509D60DCF839
:100860000C500CF1100CDD6010330F2CEDD8103A49
:1008700022F00F0502F00F02103544194D19032A1A
:1008800012D9002355F803C044F803C00433C3EB66
:10089000020CBCF1030FF5D8043A22F0030302F076
:1008A00003020433E418ED183AB1002315F803C02D
:1008B00004F803C001339342F8D130BC704700BF45
:1008C000884230B405460C460ED98B1898420BD29C
:1008D00042B11946831811F801CD12F1FF3203F825
:1008E00001CDF8D130BC70470F2A36D941EA000358
:1008F00013F0030F33D18C4603461446DCF8005046
:10090000103C1D60DCF804505D60DCF808509D6010
:10091000DCF80C500CF1100CDD6010330F2CEDD80E
:10092000103A22F00F0402F00F02103405190C19CE
:10093000032A12D9002354F803C045F803C0043336
:10094000C3EB020CBCF1030FF5D8043A22F0030309
:1009500002F003020433ED18E418002AC2D0002389
:1009600014F803C005F803C001339A42F8D1B9E77F
:1009700010F0030F844630B40ED0002A44D0013A60
:10098000CCB2034602E0002A3ED0013A03F8014B04
:1009900013F0030F9C46F6D1032A2DD901F0FF0472
:1009A0000F2A654688BF634644EA042488BF15467B
:1009B00044EA044410D9103D1C605C609C60DC601B
:1009C00010330F2DF7D8103A22F00F0502F00F0266
:1009D0001035032A65440ED90023EC500433C3EBD1
:1009E000020CBCF1030FF8D8043A22F0030302F022
:1009F00003020433ED18AC4632B1C9B200230CF83F
:100A0000031001339A42FAD130BC704780EA0102E8
:100A100012F0030F3AD110F0030220F0030021F08E
:100A2000030150F804CB08BF51F8043B0DD082F00D
:100A300003024FEAC2026FF07F4323FA02F251F839
:100A4000043B4CEA020C43EA020300BFACF1013262
:100A50009C4501BF22EA0C0212F0803F50F804CB03
:100A600051F8043BF2D04FEA0C604FEA1C2C0128ED
:100A700028BFB0EB036F08BF1B0AF4D003F0FF03DD
:100A80004FEA1060A0EB0300704700BF10F0030FA7
:100A90000AD010F8012B11F8013B012A28BF9A4215
:100AA000F4D0A2EB030070474DF8045D4DF8044DFF
:100AB0004FF0010242EA022242EA024201F0030C34
:100AC00021F0030150F8044B51F8045BBCF1020F14
:100AD00026D04BD824F07F4CBCEB152FA4EB02039F
:100AE00023EA04030DD113EAC21308BF51F8045BD3
:100AF0000AD18CEA040CBCEB056F0CD150F8044B06
:100B0000E8E74FEA15255CE033F07F4352D10D78DA
:100B10004FEA146C55E04FEA146C05F0FF0550E005
:100B20004FEA044CA4EB02034FEA1C4C23EA0403F3
:100B3000BCEB154F17D113EAC21308BF51F8045B81
:100B400007D18CEA040CBCEB054F08D150F8044BDC
:100B5000E6E71B042ED10D884FEA144C31E04FEA32
:100B600005454FEA144C4FEA15452AE004F0FF0C06
:100B7000BCEB156FA4EB020323EA04030DD113EAC7
:100B8000C21308BF51F8045B0AD18CEA040CBCEB19
:100B9000052F0AD150F8044BE8E74FEA156510E03D
:100BA00014F0FF0F06D051F8045B4FEA142C25F027
:100BB0007F4506E04FF000005DF8044B5DF8045BF4
:100BC00070470CF0FF0205F0FF00012828BF90429B
:100BD00004BF4FEA1C2C2D0AF3D0A2EB00005DF8F5
:100BE000044B5DF8045B704720F0030110F0030034
:100BF000C0F1000051F8043B00F1040C4FEACC0CAA
:100C00006FF000021CBF22FA0CF213434FF0010CEC
:100C10004CEA0C2C4CEA0C4CA3EB0C0222EA03022B
:100C200012EACC1204BF51F8043B0430F4D013F0A4
:100C3000FF0F1FBF013013F47F4F013013F47F0FFC
:100C400018BF0130704700BF2DE9F047804690681B
:100C500092460E4600282DD00B6F13F4005F2BD068
:100C6000D2F8009009F1080959F8047C59F8085C99
:100C7000BF08B7B1002401E0A74210DD55F8041BFE
:100C800040463246013401F0C3FFB0F1FF3FF3D1DB
:100C90000023CAF80830CAF80430BDE8F087DAF853
:100CA0000800BF0009F10809C01BCAF808000028A5
:100CB000DAD1EDE75060F0E7404602F099FAE7E755
:100CC0002DE9F04FADF54B7D0E4693460090059310
:100CD00018B18369002B00F0F181DFF8103B9E42D0
:100CE00000F0F381DFF8083B9E4200F05785DFF803
:100CF000043B9E4204BF009AD668B6F80CC01FFAA7
:100D00008CF313F4007F00F0D08113F4005F09D15D
:100D10004CF4005C326FA6F80CC01FFA8CF322F47E
:100D20000052326713F0080F00F03C813269002A4C
:100D300000F0388103F01A020A2A00F04381ACADBA
:100D4000BCA8BCA92C46B246283027310023421A41
:100D50000A930B900C9102930D92C695C893C7937A
:100D60009BF80030B3F1250218BF0122002B0CBF05
:100D7000002302F00103002B00F0B0810BF101020F
:100D8000164601323378191E18BF0121252B0CBFDE
:100D9000002301F00103002BF2D1B6EB0B070FD0BB
:100DA000C79BC89A0133C4F800B0D219072B6760FB
:100DB000C793C89200F358810834029BDB19029351
:100DC0003378002B00F068854FF0000C0020CDF840
:100DD0000CC006F1010B8DF827034FF0FF38737834
:100DE000E1462B260BF1010BA3F12002582A00F259
:100DF000DC81DFE812F04602DA01DA015102DA01A1
:100E0000DA01DA01DA01DA01DA018001C002DA017D
:100E1000D2000D03DA01C502CA02CA02CA02CA021E
:100E2000CA02CA02CA02CA02CA02DA01DA01DA0135
:100E3000DA01DA01DA01DA01DA01DA01DA017B003A
:100E4000DA01DA01DA01DA01DA01DA01DA01DA01CA
:100E5000DA01DA016E00DA01DA01DA01DA01DA0127
:100E60005900DA01DA016702DA01DA01DA01DA019E
:100E7000DA01DA01DA01DA01DA01DA0178027D0059
:100E8000DA01DA01DA01A4027D00DA01DA0189026D
:100E9000DA0194027000A9028E01DA01DB02DA01A4
:100EA0005B00DA01DA01930149F0100919F0200F13
:100EB00040F0F78119F0100F00F0A6840599012386
:100EC0000A680431164605910027003A18BF01222E
:100ED00048E149F0100919F0200340F0B68219F0FA
:100EE000100100F0988405990A68EAE749F01009B2
:100EF00019F0200F40F0F48019F0100F00F0A684D4
:100F00000598066804300590F717002FC0F25A8440
:100F100056EA07034FF001030CBF00220122B8F18B
:100F2000000FA8BF29F08009B8F1000F18BF42F0E8
:100F30000102002A00F02681012B00F0F383022B2E
:100F400000F0D6830C9BCDF804B0CB46FA084FEAEC
:100F5000D60949EA4779114659EA010006F0070621
:100F600006F130029C461A704E460F4603F1FF33DD
:100F7000ECD1D946CDF81CC019F0010FDDF804B052
:100F800040F010840B99CDF81880CCEB010104914E
:100F90002FE2039805924042039049F004099BF820
:100FA00000301FE70098314601F030FB002840F088
:100FB000D784B6F80CC01FFA8CF303F01A020A2A81
:100FC0007FF4BDAEF48914F4004F7FF4B8AE13F48F
:100FD000007F00F03E82D6F870A08FAFD6F8209048
:100FE0003946ADF84A425A46B46A4FF0000E0098AE
:100FF0002CF00208059B4FF4007C0FADADF8488241
:10100000CDF8ACA2CDF85C9299948F959395CDF8DC
:1010100044C2CDF850C2CDF854E2CDF894E2CDF8F8
:1010200098E2CDF89CE2CDF8A0E2FFF749FE002857
:1010300002900BDB0098394601F064FBDDF808C034
:10104000002818BF4FF0FF3CCDF808C0BDF848326B
:1010500007F1580013F0400F1EBFB38943F040035F
:10106000B38108F003FC1BE000985146C6AAFFF7C5
:10107000EBFD48B92C46A0E600985146C6AAFFF7FA
:10108000E3FD002800F0B5825646B38913F4007FD3
:101090001ED0029A13F0400F18BF4FF0FF32029299
:1010A00002980DF54B7DBDE8F08F06F1580008F071
:1010B000E3FBB6F80CC01FFA8CF326E601F0AEFC99
:1010C000DFF828379E427FF40DAE0098466814E69C
:1010D00006F1580008F00CFCB389DAE75E466FE6CB
:1010E000059AD31D23F0070303F1080CCDF814C0B3
:1010F000D3E9006709E7059BDDF814C01B680CF114
:101100000402002B0393FFF644AF9BF800300592D6
:1011100068E649F020099BF8003063E6DFF8D8164E
:1011200019F0200F0A9100F0D480DDF814C00CF102
:10113000070222F0070202F108000590D2E90067D9
:1011400056EA07000CBF0022012219EA020F00F044
:1011500023838DF8253349F00209302301228DF8CD
:10116000243302230021B8F1000FA8BF29F0800921
:10117000B8F1000F18BF42F001028DF82713002AC2
:101180007FF4DAAE002B40F0918219F0010F00F0ED
:10119000FD820D9BDDF830C0CDF81880049330231C
:1011A000CDF81CC08DF8173323E1002B00F07483B9
:1011B00001228DF8F0320DF53C7C002301928DF870
:1011C00027330492CDF81CC04FF0000CCDF818C0A6
:1011D00019F00200089002D001990231019119F032
:1011E0008402099240F03D81039BDDF804C0CCEB02
:1011F0000306002E40F33581102E40F39183C89AE8
:101200004FF01008C79BDFF8F47502E0103E102E77
:101210001BDD01332760C4F8048010320834072B2B
:10122000C79304F10800C892F0DD00985146C6AAA1
:101230002C46FFF709FD00287FF426AF103EC89A20
:10124000102E05F10800C79BE3DC01339219072B30
:1012500027606660D8BF00F10801C793D8BF044675
:10126000C89240F3028100985146C6AAFFF7ECFCF1
:1012700000287FF409AFC89A05F10801C79B2C46E6
:10128000F3E09DF82733002B40F0AB8220228DF84D
:1012900027239BF80030A5E549F001099BF80030B1
:1012A000A0E5059BDA1D012322F0070202F1080CDC
:1012B000CDF814C0D2E9006756EA07000CBF00223F
:1012C00001224FE7DFF8382519F0200F0A927FF44A
:1012D0002CAF19F0100F00F0B082059900270E68AE
:1012E000043105912CE7059B0122BCA8002103F1E4
:1012F000040C01921B68CDF814C0049207908DF87D
:1013000027138DF8F0325FE79BF800306C2B0ABF93
:1013100049F0200949F010091BF8013F62E519F076
:10132000200F00F09E820598DDF808C00168624633
:101330004FEAEC7304300590C1E9002310E549F051
:1013400040099BF800304DE5059B49F00209DFF8A4
:10135000A8C40027191D05911A68782130238DF83B
:1013600025138DF8243316460223003A18BF0122B4
:10137000CDF828C0F6E68DF827639BF8003031E5FC
:1013800049F080099BF800302CE559460022A3F172
:10139000300C11F8013B02EB8202A3F130008B46C6
:1013A00009280CEB4202F2D903921DE5059B0020AF
:1013B0008DF82703191D05911B680793002B00F07A
:1013C000BF82B8F1000FC0F2A48207980021424604
:1013D00002F062FA002800F0D582DDF81CC0CCEBE8
:1013E00000000490404540F35F820021CDF810805A
:1013F0000691049ADDF818C09DF827336245B8BFFE
:1014000062460192002B3FF4E3AE01320192DFE627
:101410001BF8013B2A2B00F0B982A3F13002092A04
:1014200088BF4FF000080DD859464FF0000811F85A
:10143000013B08EB880802EB4808A3F13002092AB7
:101440008B46F4D948EAE878CEE4059BDA1D002300
:101450002AE706F1580008F04BFAB6F80CC0F489F8
:10146000B9E5C89A04F10801C79B9DF8270368B144
:10147000C8A8013307302060012060601218072BD4
:10148000C793C89200F326810C460831089860B1D2
:101490000133C9A8206002201218072B6060C7938F
:1014A000C89200F309810C460831DDF824C0BCF174
:1014B000800F00F0A3800698DDF810C0CCEB00068A
:1014C000002E3FDD102E40F3E481CE4F4FF0100888
:1014D00002E0103E102E1BDD01332760C4F80480AB
:1014E00010320834072BC79304F10800C892F0DDCE
:1014F00000985146C6AA2C46FFF7A6FB00287FF4A9
:10150000C3AD103EC89A102E05F10800C79BE3DC5E
:1015100001339219072B27606660D8BF00F10801DC
:10152000C793D8BF0446C8920CDD00985146C6AA9E
:10153000FFF78AFB00287FF4A7ADC89A05F10801E0
:10154000C79B2C460133DDF810C00798072B624477
:10155000C4F804C02060C793C89200F39C8019F0BF
:10156000040F3AD00398019BC41A002C35DD102CCF
:1015700040F3E381C79B1026A04F0DF54678DDF8B8
:10158000009002E0103C102C16DD01330F604E601D
:1015900010320831072BC793C892F3DD48465146F5
:1015A0004246FFF751FB00287FF46EAD103CC89A0D
:1015B000102C2946C79BE8DC0133A218072B0F60CB
:1015C0004C60C793C89208DD00985146C6AAFFF741
:1015D0003BFB00287FF458ADC89A029CDDF804C09C
:1015E00003988445ACBF644424180294002A7FF415
:1015F00043AD00212C46C791FFF7B2BB0398DDF83D
:1016000004C0CCEB0006002ED8BF04F108017FF720
:1016100052AF102E40F3A1817A4F4FF0100802E034
:10162000103E102E1BDD01332760C4F804801032F9
:101630000834072BC79304F10800C892F0DD009826
:101640005146C6AA2C46FFF7FFFA00287FF41CADCE
:10165000103EC89A102E05F10800C79BE3DC013349
:101660009219072B27606660D8BF00F10801C79365
:10167000D8BF0446C8927FF71EAF00985146C6AA4D
:10168000FFF7E2FA00287FF4FFACC89A05F10801E1
:10169000C79B2C460FE700985146C6AAFFF7D4FA1D
:1016A00000287FF4F1ACC89A294658E70B980492B9
:1016B000CDF8188007909CE600985146C6AAFFF71F
:1016C000C3FA00287FF4E0ACC89A05F10801C79B73
:1016D0002C46EAE600985146C6AAFFF7B5FA00285C
:1016E0007FF4D2ACC89A05F10801C79B2C46CDE621
:1016F0000C98DDF828C0330906F00F0243EA07739F
:1017000039091E461CF802200F460346013856EAE6
:1017100007011A70EFD10B9A0793D21ACDF81880EF
:10172000049266E617B9092E40F2E080DDF830C079
:10173000CDF804B0A346CDF81090C146E04630463F
:1017400039460A22002303F071FB444630463946ED
:10175000002308F1FF38303222700A2203F066FBC2
:1017600050EA010306460F46E9D10794C846DDF862
:101770002CC05C460798DDF81090C0EB0C0CDDF82F
:1017800004B0CDF810C0CDF8188032E60B99049360
:10179000CDF8188007912CE60223E3E400998E68C7
:1017A000FFF7ABBA302A00F0C18007930798DDF845
:1017B0002CC0C3EB0C0C3023CDF810C00370CDF857
:1017C000188016E6764267EB47074FF02D0356EA7E
:1017D000070C8DF827330CBF002201220123FFF7ED
:1017E0009EBB9BF80030FFF7FDBA00BFA89F000822
:1017F000C89F0008E89F0008E0AE0008609E00084F
:10180000CCAE0008709E000819F0400F6AD0059B0E
:101810001A88012305E019F0400359D0059B1A8866
:101820000B46DDF814C016460027003A18BF012207
:101830000CF1040CCDF814C094E419F0400F3DD025
:10184000059A002716880432059279E419F0400FB2
:101850002DD00599B1F9006004310591F717FFF714
:1018600054BB19F0100F0CD119F0400F09D0059A94
:10187000DDF808C0136804320592A3F800C0FFF732
:101880006FBA059802990368043005901960FFF754
:1018900067BA464F08463BE6C89B5646002B2FD1F9
:1018A0000023C793FFF7F1BB00200690A1E5059A3E
:1018B000166804320592F717FFF727BBDDF814C04E
:1018C0000027DCF800600CF1040CCDF814C037E4FC
:1018D000059802680430164605900027003A18BFA4
:1018E00001223FE4059801230268F3E70D993036A1
:1018F0000C9A8DF8176304910792CDF8188078E55B
:1019000000985146C6AAFFF79FF900287FF4BDABA7
:10191000C6E7079800210691FFF766F9049068E58D
:1019200004F10800C89AC79B214F8EE40B9A079BCD
:10193000CDF81880D21A04925BE5C79B1C4F3BE69A
:101940001C4AB8F1060F28BF4FF0060828EAE873D2
:10195000CDF810800193079236E4144F08467EE6D6
:10196000B38913F4007F1CBF4FF0FF3302937FF461
:1019700097AB06F158004FF0FF33029307F0B8FF22
:10198000FFF78EBBCDF81080069032E505990A1D51
:10199000D1F80080B8F1000FBEBF4FF0FF389BF8C0
:1019A00000300592BFF6B1ABFFF71CBA709E00087D
:1019B000609E0008F4AE000840F2182CC1F2000C42
:1019C00008B58E46134601467246DCF80000FFF764
:1019D00077F908BD2DE9F04F0C46DDB0174680467B
:1019E000069300F0FBFFA28993B213F4007F00F08E
:1019F0000C8313F4005FDFF8206B02BF42F4005247
:101A0000A281236F4DA9039104BF23F400532367E0
:101A1000002005460790099008903B785B931BB324
:101A200032680137D11891F8019019F0080926D0D1
:101A300063680DE0236831685A1C1B78CB185B780B
:101A400013F0080FE9D0636801352260013B636041
:101A5000002BEFDC4046214602F082F90028E9D055
:101A60003B785B93002BDBD1A38913F4007F00F05C
:101A7000588300F0BBFF08985DB0BDE8F08F252BC0
:101A800010D06368002B40F30981236817F8012CFC
:101A900019789142E8D16268013301352360531E01
:101AA0006360BAE73B78CA460137782B00F23E8381
:101AB0000FF2040C5CF823F04B2100082D210008E4
:101AC0002D2100082D2100082D2100082D210008BE
:101AD0002D2100082D2100082D2100082D210008AE
:101AE0002D2100082D2100082D2100082D2100089E
:101AF0002D2100082D2100082D2100082D2100088E
:101B00002D2100082D2100082D2100082D2100087D
:101B10002D2100082D2100082D2100082D2100086D
:101B20002D2100082D2100082D2100082D2100085D
:101B30002D2100082D2100082D2100082D2100084D
:101B40002D2100082D2100082D210008831A0008EE
:101B50002D2100082D2100082D2100082D2100082D
:101B6000672100082D2100082D2100082D210008E3
:101B70002D2100082D2100086F2100086F21000889
:101B80006F2100086F2100086F2100086F210008F5
:101B90006F2100086F2100086F2100086F210008E5
:101BA0002D2100082D2100082D2100082D210008DD
:101BB0002D2100082D2100082D2100082D210008CD
:101BC0002D2100082D210008D11C00082D2100081E
:101BD0002D2100082D2100082D2100082D210008AD
:101BE0002D2100082D2100087F2100082D2100084B
:101BF0002D210008872100082D2100082D21000833
:101C00002D2100082D2100082D2100082D2100087C
:101C10002D2100082D210008992100082D21000800
:101C20002D210008AB2100082D2100082D210008DE
:101C30002D2100082D2100082D2100082D2100084C
:101C40002D210008C1210008D51C00082D21000805
:101C50002D2100082D2100088F2000089720000862
:101C60002D2100082D210008AD2000082D2100089D
:101C7000C1200008DD200008EF2000082D21000809
:101C80002D210008092100082D2100080F2100083E
:101C90002D2100082D2100089921000840462146E9
:101CA00002F05EF800283FF4F0AEA38913F4007F41
:101CB00000F08F8200F09AFE0898002800F08582DC
:101CC000A38913F0400F18BF4FF0FF300890D2E601
:101CD00049F00109DFF844284FF0030B0A23099368
:101CE00007926368002B40F3978119F0400F17D1DA
:101CF000236831681A7801338A18527812F0080F75
:101D00000ED06268013A6260002AC8BF236035DDE8
:101D100001351A7801338A18527812F0080FF0D181
:101D2000BBF1020F34D0BBF1030F00F0C380BBF155
:101D3000010F00F08F80BAF1000F08BF4FF0010AC9
:101D400019F0010B40F0968219F0100F02D116E342
:101D5000C9EB0A0AD4F8049040462146D14580F2E6
:101D600027832368CB444B44236001F0F9FF00280C
:101D7000EED0BBF1000F98D05D444EE640462146C0
:101D800001F0EEFF002890D1316801352368C0E7EB
:101D9000BAF1000F08BF4FF0FF3A19F0010340F00D
:101DA000338219F0100F1EBF9946316823682ED177
:101DB000069A131DD2F800B02268D946117830680F
:101DC0004118497811F0080F40F00F82616801391D
:101DD000616012F8011B1AF1FF3A09F8011B226039
:101DE00000F0038261680029E8DC40462146049344
:101DF00001F0B6FF049B002840F0F7812268DDE780
:101E00004046214601F0ACFF10BB316823681A78C8
:101E100001338A18527812F0080F19D1626809F15B
:101E200001092360013ACA45626011D0002AEEDC44
:101E3000E6E71D46BBEB09093FF416AE069A4FF0E4
:101E4000000C089B04320692013308938BF800C003
:101E50004D44E2E5BAF1000F08BF4FF0FF3A19F028
:101E6000100F00F0EC800DAB22684FF000099B468C
:101E7000137801321BF80330B3B1636809F101092B
:101E80002260013BCA456360E2D0002BF0DC404693
:101E9000214601F065FF0028DAD12268137801326B
:101EA0001BF80330002BE8D1B9F1000F3FF4DCAD93
:101EB0004D44B2E50AF1FF33099A262B49F45869DB
:101EC00086BFAAF127034FF0270A00230DF59A7B5E
:101ED00019462B460D4600200A90D4F800C09CF805
:101EE0000000A0F12B014D2941D8DFE801F0884026
:101EF00088404071686868686868685D5D40404017
:101F00004040404058585858585840404040404041
:101F100040404040404040404040402740404040DA
:101F20004040404058585858585840404040404021
:101F300040404040404040404040402709F4C0619C
:101F4000B1F5007F13D129F40079102249F4A0697A
:101F50000BF8010B6168013961600029C4BF0CF105
:101F6000010CC4F800C05FDD1AF1FF3AB5D119F4D5
:101F7000807F1D46099207D00398834500F22E8189
:101F800003998B453FF470AD19F0100200F0DF812A
:101F9000039BDDF828C0ED1A65445D443DE50A2A3F
:101FA000E5DD29F43869D3E749F6806EC0F6000E06
:101FB0003EF91220082ADADD29F43869C8E749F623
:101FC000806129F43869C0F6000131F91220BFE7B9
:101FD00019F4006FBCD012B949F40079083219F431
:101FE000806F18BF29F4B069B2D129F4607915B1B6
:101FF000013D0AF1010A0A9801300A90AAE719F096
:10200000800FB4D029F08009A2E704F1580007F04E
:1020100033FCA28993B2ECE44046214601F0A0FED5
:1020200000283FF462AE40E6404621460592049304
:1020300001F096FE059A049B002895D097E7069933
:102040000DAB2268D1F8009019462B460D46CB46C1
:102050001178695C00293FF4ECAE61680139616078
:1020600012F8011B1AF1FF3A0BF8011B22603FF432
:10207000E0AE61680029EBDC40462146049301F0A4
:102080006FFE049B002840F04D822268E0E749F093
:1020900004093B7808E5DFF884C44FF0000E4FF0E8
:1020A000030BCDF824E0CDF81CC01AE63B786C2B6E
:1020B0000ABF49F0020949F0010917F8013FF3E4AA
:1020C00019F0100F7FF4A9AC19F0040F00F0BF81D4
:1020D00006980368043006901D809EE4DFF840E413
:1020E00008204FF0030B0990CDF81CE0F9E5DFF86C
:1020F00030C44FF0100E49F40879CDF824E04FF0C9
:10210000030BCDF81CC0ECE54FF0020BE9E5DFF85E
:1021100010344FF00A0C4FF0030BCDF824C0079396
:10212000DFE504F1580007F0E3FBA2E4D318FB4914
:102130004FF0030B5B78079103F00303012B08BFFB
:1021400049F001090A220992CBE5A38913F4007F23
:1021500003D104F1580007F0CBFB00F047FC4FF02F
:10216000FF30089087E449F010093B789CE40A218D
:1021700001FB0AFAAAF1300A9A443B7894E449F048
:1021800002093B7890E4E648082149F001090991E9
:102190004FF0030B0790A4E5E14A102349F40079BE
:1021A00009934FF0030B07929BE50DAB3946184698
:1021B00049F0400901F072FE4FF0010B074690E52F
:1021C00049F040094FF0000B8BE54FF0FF310891CB
:1021D00051E404F1580007F08BFB6BE51BF8011D7F
:1021E0004046224602F094FACAE64FF0000C89F805
:1021F00000C0DDF820E0CBEB05054D4406930EF161
:10220000010ECDF820E008E40021082257A8FEF7CF
:10221000AFFB19F0100918BF0DF5B67BCDF828906B
:1022200008BFDDF818E04FF0000902BFDEF800B08B
:102230000EF1040ECDF818E0236832681B78D3182D
:102240005B7813F0080F14BF00230123BAF1000FCD
:102250000CBF002303F00103002B40F0BE800A985E
:1022600000287FF4DAAB0899CBF80000013108911F
:10227000FFF7D3BB0021082259A8FEF779FB19F01C
:102280001009CDF8289014BF4FF0000BDDF818E0CE
:102290004FF0000904BFDEF800B00EF1040E0B97FA
:1022A0002F465546DDF828A008BFCDF818E001F00C
:1022B000C9F948453FF4F9AC23685CA8626800EBB3
:1022C000090E09F1010959A913F801CB013A404659
:1022D00062604DAA23604B46009159460EF83CCCF3
:1022E00001F044FAB0F1FF3F3FF4DFAC00282AD1FF
:1022F000BAF1000F01D1CBF800A04F44013D4FF0DF
:102300000009BAF1000F02D10BF1040BD14663684A
:10231000002B0CDD002DCAD13D460B9F0A9A002AE6
:102320007FF47BAB089B01330893FFF776BB4046F5
:10233000214601F015FD0028ECD03D460B9FB9F178
:10234000000FEBD0B1E410F1020FE0D0D5E78BF82D
:10235000002040464DA9099BDDF81CC0E04719F05C
:10236000200F31D0DDF818E0DEF800300EF1040E59
:10237000CDF818E01860089A0132089208E6DDF8F6
:1023800018C00122009440465346DCF8001000F0CB
:10239000EFFC00283FF489ACDDF818E045190898F7
:1023A0000EF1040ECDF818E001300890FFF735BBB0
:1023B0002368D344CAEB09095D449A44C4F80490E5
:1023C000C4F800A0FFF729BB19F0040F53D00699F9
:1023D0000B68043106911880CDE701F033F94845C8
:1023E0003FF463AC23685CA8626800EB090E09F156
:1023F000010957A913F801CB013A404662604DAA82
:1024000023604B46009159460EF83CCC01F0AEF9E2
:10241000B0F1FF3F3FF449AC002854D1CBF80000A5
:10242000DBF8000001F0DAF800285FD0B9F1000F06
:102430003FF415AFAA464D46013D4DAA4046515DB9
:10244000224602F065F9002DF6D1554607E719F04E
:10245000010F31D119F0020F53D0069AEB17DDF8B6
:1024600018C011680CF1040C2A46CDF818C0C1E957
:102470000023FFF7D2BA19F0010217D119F0020FA9
:102480005CD0274BDDF81CC09C4551D040464DA97F
:10249000099B01F047FEDDF818E0DEF800300EF190
:1024A000040ECDF818E01860596064E7069A1368C6
:1024B0000432069218605EE706990B6804310691B3
:1024C0001D60FFF7AABA10F1020FA9D16368002BB3
:1024D0003FF7B2AE4046214601F042FC00283FF4EF
:1024E000ABAEB9F1000F7FF4E0ABB8E60A9B4D4408
:1024F0000AF1FF3A8146002BE8D10BF1040B994613
:10250000E4E7DDF818E0DEF800300EF1040ECDF857
:1025100018E01D60FFF781BA8C060010B13F00087B
:102520000D430008D9451D467FF484ACFFF7BDBBC1
:1025300040464DA9099B01F0ABFFACE706990B683B
:1025400004310691186016E710B5044684B008B14E
:10255000806990B10E48814208BF616808D00D487B
:10256000814208BFA16803D00B48814208BFE168DF
:102570002046FFF72FFA04B010BD204603910292C7
:10258000019300F04BFA019B029A0399E2E700BF26
:10259000A89F0008C89F0008E89F000840F2182C78
:1025A000C1F2000C08B58E46134601467246DCF8AF
:1025B0000000FFF70FFA08BDF8B504460F4D0F46AF
:1025C0001646286808B183699BB10D4B9C4208BF31
:1025D000446808D00B4B9C4208BF846803D00A4B68
:1025E0009C4208BFC46821463A463346FFF7F2F9D9
:1025F000F8BD00F013FA2868E7E700BF18020010E2
:10260000A89F0008C89F0008E89F000870B506460C
:10261000384D0C46286810B18369002B2ED0364BFC
:102620009C4230D0354B9C423CD0354B9C4204BF41
:102630002B68DC68A289104693B213F0080F18BF0C
:10264000216932D0002921D013F0010207D063693B
:102650000022A2605B42A36141B1002070BD13F073
:10266000020F08BF6269A2600029F6D1A38913F0A6
:10267000800F14BF4FF0FF300020EFE700F0CEF9DD
:102680001D4B9C42CED12B685C68D3E703F42072CB
:10269000B2F5007FD8D02146304600F0F3FFA38981
:1026A0002169D1E72B689C68C4E713F0100F08BFBD
:1026B0004FF0FF30D2D013F0040F08BF216913D0C0
:1026C000616B49B104F14403994203D0304600F0F4
:1026D000B3FCA089002363634FF6DB72216900EA33
:1026E000020200236360216042F00803A3819BB2D1
:1026F000A8E700BF18020010A89F0008C89F0008A4
:10270000E89F00082DE9F0410C460E698046002E36
:1027100048D018B18369002B00F09180844B9C4213
:1027200008BFD8F804400AD0824B9C4208BFD8F8B2
:10273000084004D0804B9C4208BFD8F80C40A789C1
:102740003E46002F2ED017F4007F7BD03BB213F013
:10275000080F2AD02669002E00F0D8802568266050
:10276000AD1B13F0030F0CBF63690023002DA360A2
:1027700002DC73E0002D70DD32462B46216A4046B4
:10278000A76AB8472D1A00280644F3DCA38943F052
:1027900040039BB2A38113F4007F18BF4FF0FF36B4
:1027A00000F0AD803046BDE8F081636847F4006614
:1027B000A681002B7FDDE56A002D3BD0B3B200225D
:1027C00013F48057D8F80060C8F8002018BF626D75
:1027D0004CD013F0040F05D06168636B521A0BB133
:1027E000236CD21A0023216A4046A847B0F1FF3F6C
:1027F000054647D0A3890021226923F40063616064
:102800001B0422601B0CA38113F4805F03D0B5F17D
:10281000FF3F57D06565616BC8F8006000294FD055
:1028200004F14403994202D0404600F005FCA68919
:102830000023636316F4007613D00026B2E700F09D
:10284000EDF86BE704F1580007F016F8A7893BB2E2
:1028500013F0080F7FF47EAFA7E7A78917F400767F
:10286000EBD104F1580007F043F89BE73A46012307
:10287000216A4046A847B0F1FF3F024628D0A3890D
:10288000E56AA6E7D8F80030002BB3D01D2BB1D0F5
:10289000162BAFD0A38943F040039BB2A38113F45E
:1028A000007F18BF06467FF47DAF04F158002E4626
:1028B00007F01EF876E7236C002B3FF77CAFB9E7F3
:1028C000A689B7E7D8F80030002BA4D16565A2E748
:1028D000D8F80030002BD2D01D2B14BF00210121CD
:1028E000162B14BF0B4641F00103CBB1A389C8F8E6
:1028F00000603E4613F4007F7FF454AFB1E704F16B
:1029000058004FF0FF3606F0F3FF4BE717F400775F
:102910007FF448AF04F158003E4606F0E9FF41E776
:10292000A389064643F040039BB2A381E2E700BFC0
:10293000A89F0008C89F0008E89F000808B528B1B4
:10294000054B01461868FFF7DDFE08BD034B04493F
:10295000186800F017FEF8E7180200105C9E0008E7
:102960000527000844F6713108B5C0F6000100F0F3
:10297000E1FD08BD08B5838913F4007F02D158300A
:1029800006F0B6FF002008BD08B5838913F4007F68
:1029900002D1583006F070FF002008BD70B57425D4
:1029A0000E4605FB01F505F10C01FDF783FC04461D
:1029B00040B1002100F10C0021602A466660A06051
:1029C000FDF7D6FF204670BD08B549F65C63C0F63A
:1029D00000031868FFF7C6FF08BD00BF40F62400DB
:1029E00008B5C1F2000006F047FF08BD40F624001C
:1029F00008B5C1F2000006F07BFF08BD08B502482B
:102A000006F03AFF08BD00BF3408001008B50248C0
:102A100006F06EFF08BD00BF340800102DE9F04F2E
:102A2000054683B0FFF7EAFFAC69002C73D13C4A3E
:102A30000123AC642846AB61AA62EC642C65019367
:102A400000F078F8DFF8DCA0DFF8DC80DFF8DC905D
:102A5000DFF8DCB0024628466A6000F06BF80246F8
:102A60002846AA6000F066F86F684FF0040C214613
:102A70000822E86007F16800A7F80CC03C607C60A1
:102A8000BC603C67FC813C617C61BC61FDF770FF10
:102A9000AE68019B4FF0090C21460822A6F80CC035
:102AA00006F16800F3813F62C7F824A0C7F82880C8
:102AB000C7F82C90C7F830B034607460B4603467E5
:102AC00034617461B461FDF753FFED6812234FF078
:102AD000020C3662214605F16800C6F824A0C6F84B
:102AE00028800822AB81C6F82C90A5F80EC0C6F845
:102AF00030B02C606C60AC602C672C616C61AC6198
:102B0000FDF736FF2D62C5F824A0C5F82880C5F86A
:102B10002C90C5F830B0FFF779FF03B0BDE8F08F17
:102B2000652900081D3F0008453F00087D3F00085B
:102B3000A53F000870B50646FFF750FF234B1D6800
:102B4000AB69002B31D048356B68AC6813F1FF33AB
:102B500004D526E0743413F1FF3322D4B4F90C20E9
:102B6000002AF7D100254FF0FF332567E3810123C9
:102B7000A565A381E56525666566FFF737FF04F166
:102B8000680025602946A5600822656025616561A9
:102B9000A561FDF7EDFE6563A563A564E5642046C8
:102BA00070BD2C682CB12546CEE72846FFF736FFCE
:102BB000C9E730460421FFF7F1FE044628600028EB
:102BC000F1D1FFF713FF0C233360E8E75C9E0008A8
:102BD00008B5FFF703FF40F21823C1F2000342F6E5
:102BE0008911C0F60001186800F0A4FC08BD00BF00
:102BF00008B540F21823C1F2000342F67511C0F681
:102C00000001186800F096FCFFF7F0FE08BD00BF59
:102C10002DE9F0451446928983B007460E4693B2DB
:102C200013F4007F74D013F4005F01BF42F400522C
:102C3000A281236F43F4005308BF236700F002FD15
:102C4000012856D001AD04F16803384629463246C2
:102C500001F09CFEB0F1FF3F824629D0002846D00B
:102C60004FF000080AE0236815F808201A7023685E
:102C70000133236008F10108D04538D2A368013B35
:102C8000A360002BEFDAA2690020934221DB2368C6
:102C900015F808201A7023685A1C19780A2918BFD9
:102CA000226018D00028E5D0A3894FF0FF3605E058
:102CB000A389064643F040039BB2A38113F4007F2F
:102CC00003D104F1580006F013FE304603B0BDE80E
:102CD000F08515F808103846224601F0D7FDB0F10E
:102CE000FF3F14BF002001200028C3D0DCE7A389E8
:102CF000E4E7331E18BF0123FF2E8CBF002303F02F
:102D00000103002B9ED002AD824605F8046DA7E7B3
:102D100004F1580006F0B0FDA28993B283E700BF2A
:102D200070B506460E4D0C46286808B1836993B10C
:102D30000C4B9C4208BF446808D00B4B9C4208BF18
:102D4000846803D0094B9C4208BFC46831462246C0
:102D5000FFF75EFF70BDFFF761FE2868E8E700BF80
:102D600018020010A89F0008C89F0008E89F0008EC
:102D70002DE9F04F85B002FB03F993469A46804651
:102D80000E460E9CB9F1000F00F0B18018B18369B6
:102D9000002B00F0C380734B9C4208BFD8F804405E
:102DA0000AD0714B9C4208BFD8F8084004D06F4B42
:102DB0009C4208BFD8F80C40FFF710FEA3899AB2D6
:102DC00012F4007F00F0958012F4005F07D143F405
:102DD0000052236FA28192B223F4005323676568E7
:102DE000002DA8BF2B46C0F28F8012F0020F37468D
:102DF00008BF4E4659D04B4528BF4B4621681A465E
:102E000030460193FDF714FD019B616B2768B9EB18
:102E1000030218BF0122D4F804C000290CBF00200F
:102E200002F00100FF18C3EB0905C3EB0C0C27608F
:102E3000C4F804C0002800F08A8004F144029142E2
:102E400004D0404600F0F8F82768019B0022626336
:102E50002269F61863690292039301E0002D6FD096
:102E60002661404665612146266000F079FF029A9E
:102E7000636827602261ED1A039AF61800236360E5
:102E800062610028EAD0A38913F4007F03D104F122
:102E9000580006F02DFDFFF7A9FDC5EB09005946C6
:102EA00001F086FE82461EE06568AE4238462A463C
:102EB0003CD92168761BFDF7BBFC236840462146C0
:102EC0005B19236000F04CFF7F190028ECD0A38928
:102ED00013F4007F25D0FFF789FDC6EB09005946A2
:102EE00001F066FE8246504605B0BDE8F08FCA4646
:102EF000F9E704F1580006F0BFFCA3899AB212F476
:102F0000005F7FF46CAF62E7002312F0020F3746D8
:102F100063601D4608BF4E46C7D06CE7FFF77EFDD5
:102F200039E704F1580006F0E3FCD4E732462168A3
:102F3000FDF77EFC62682368921B62609E19266022
:102F4000A38913F4007F06D0FFF750FDCBE7002ADA
:102F50007FF47EAFF4E704F1580006F0C9FCFFF7F8
:102F600045FDC0E7A89F0008C89F0008E89F00082B
:102F700040F2182CC1F2000C70B506460D461446FE
:102F800082B09E46DCF8000031462A462346CDF842
:102F900000E0FFF7EDFE02B070BD00BFF8B50F46D0
:102FA000224D044604F010F9AB685E6826F0030673
:102FB00006F57E630F33DF1B3F0B013F3F03B7F581
:102FC000805F07DB0021204604F0E4F8AB689B1922
:102FD000984204D0204604F0FBF80020F8BD794266
:102FE000204604F0D7F8B0F1FF3F0DD0104BF61B90
:102FF000A968204646F001061A684E60D71B1F607C
:1030000004F0E6F80120E9E70021204604F0C2F8C8
:10301000AB68C21A0F2ADDDD42F001025A60054B8F
:103020001B68C01A024B1860D4E700BF7C02001076
:10303000F40700108406001070B50D460446002900
:103040004CD004F0C1F8A5F10802DFF894C1506833
:1030500020F00103DCF80860D1188E42D1F804E0BA
:103060002EF0030E70D010F00100C1F804E036D04D
:10307000002001EB0E056D6815F0010F09D17344B6
:1030800000284FD0D1F808E0C968CEF80C10C1F87C
:1030900008E043F00101D3505160E0B9B3F5007F7F
:1030A0002AD3590A04296CD8980938304FEAC00E3F
:1030B000E644DEF80810714503D170E089688E455A
:1030C00004D0486820F003008342F7D3CB68D36074
:1030D0009160CA609A60204604F07AF870BD55F895
:1030E000085C0CF10806521B5B199568B54246D086
:1030F000D668EE60B560BCE7DB080120DCF804E0D0
:103100000CEBC3019B1010FA03F3D16088684EEA00
:103110000303CCF804309060C26020468A6004F05B
:1031200057F8DBE7D1F808E02E4DAE45ACD1CEF82C
:103130000C2043F00101CEF80820C2F80CE0C2F8E0
:1031400008E05160D350C6E710F0010F734407D177
:1031500055F8081C521A5B189068D168C1608860E5
:1031600043F00101CCF8082051601F4A12689342D5
:10317000B1D31E4B20461968FFF710FFABE70120C3
:1031800077E714299CBF01F15B004FEAC00E8FD98D
:10319000542910D8180B6E304FEAC00E88E701256D
:1031A000DCF804E080100B4615FA00F04EEA00004F
:1031B000CCF804008BE7B1F5AA7F04D8D80B7730A0
:1031C0004FEAC00E74E740F25450814204D8980C84
:1031D0007C304FEAC00E6BE74FF47C7E7E2067E7C1
:1031E0007C0200108402001088060010F007001016
:1031F0002DE9F04F83B090460C460190906800286E
:1032000000F08C808B891FFA83FA1AF0080F00F007
:10321000A6800A69002A00F0A2801AF0020BD8F8F2
:1032200000501CBF4FF0000A57467ED11AF0010A29
:103230001DBFDC46D9465F46564637D15EB39BB2CA
:10324000A76813F4007F00F09580BE42C0F0CD80E7
:1032500013F4906F40F02D812068B946BB46374685
:103260004A465146FDF72CFBA16822683346CBEB5A
:10327000010BC4F808B09144C4F80090D8F80800D5
:103280009A44F61AC71BC8F80870002F00F0968001
:10329000A389002ED3D1D5F800A06E680835CDE7FC
:1032A000D5F800904FF0000C6F680835002FF7D06C
:1032B000BCF1000F00F0CE806369BB4534BFDA4635
:1032C000BA46A668206822699E19904294BF0022DF
:1032D0000122B245D4BF002202F00102002A40F0D0
:1032E000A6809A45C0F28680A66A4A46216A01985D
:1032F000CDF800C0B047DDF800C0002806466DDDFF
:10330000BBEB060B00F08B80D8F80830B144BF1B34
:103310009E1BC8F80860002EC8D1304603B0BDE837
:10332000F08FD5F800A06F680835B7F5007F34BF7F
:103330003B464FF4007352460198002FF1D0216AAA
:10334000A66AB04700288244C0EB070746DDD8F8DC
:103350000860301AC8F808000028E6D1DEE70198B6
:103360002146FFF753F9002840F0D980A3891FFABE
:1033700083FA52E720682369984294BF002301230F
:10338000B7422CBF002303F00103002B40F08280E2
:1033900063699E4271D3A76A5246216A0198B84771
:1033A000002807461ADD3B46D8F808009A44F61A6A
:1033B000C71BC8F80870002F7FF46AAF3846ADE726
:1033C000019800F0ADFA8346002840F09B800198F8
:1033D0002169FFF731FE019A0C231360A3894FF096
:1033E000FF3043F04003A38198E72068B346B1461D
:1033F000374635E7524656464946CDF800C0FDF7F8
:103400005FFAA2682368BBEB060BCAEB0202DDF889
:1034100000C09A44A260C4F800A07FF475AF019880
:103420002146FFF76FF90028D8D1DC466CE7494602
:103430003246CDF800C0FDF743FA236821460198D3
:103440009B192360FFF75EF9DDF800C000283FF408
:1034500057AFC3E748460A213A4600F01DFA4FF03D
:10346000010C00F1010BC9EB0B0B00287FF424AF1A
:1034700007F1010B4FF0010C1EE751463246FDF7F4
:103480001FFAA16822683746891B33469219A1604A
:103490002260F3E651463A46FDF712FA2368019896
:1034A0002146DB192360FFF72DF9002896D13B4612
:1034B0007AE767692169D4F8009007EB4707C1EB09
:1034C000090907EBD77709F1010080197F108742BE
:1034D0003A463CBF07463A4613F4806F3FF470AF5C
:1034E00001981146FCF7E6FE834600283FF473AFCF
:1034F00021694A46FDF79CF9A38923F4906343F0C0
:103500008003A3810BEB0900C9EB0703C4F810B0DB
:10351000B1466761B34620603746A360A0E6019AD2
:103520004FF0FF30A38943F04003A38109231360C8
:10353000F4E600BF2DE9F04106468846FFF74EFA53
:10354000483608BF374618D000277568B46815F1AB
:10355000FF350FD4B4F90C303BB1B4F90E3020462E
:10356000B3F1FF3F01D0C047074315F1FF3504F128
:103570007404EFD53668002EE7D1FFF737FA3846E6
:10358000BDE8F0812DE9F84507468A46FFF726FA9F
:1035900017F1480608BFB0461BD04FF00008756809
:1035A000B46815F1FF3511D4B4F90C304BB1B4F94E
:1035B0000E3021463846B3F1FF3F02D0D04748EAEB
:1035C000000815F1FF3504F17404EDD53668002EBE
:1035D000E5D1FFF70BFA4046BDE8F885FF2806D88D
:1035E000044B1B681818407800F008007047002052
:1035F000FCE700BF8C06001010B5144622B110463F
:103600000A49FDF703FA08B9094810BD20460849E0
:10361000FDF7FCF90028F7D020460649FDF7F6F93A
:10362000034B00280CBF18460020EEE7FCAE000854
:10363000C8AE0008ECA6000840F29060C1F200009D
:10364000704700BF40F29063C1F20003186A7047F0
:1036500000487047B40600100020704700487047CB
:10366000D406001008B540F21823C1F200030A4640
:1036700001461868FFF7C0FF08BD00BF004870474B
:10368000D40600108B89F0B50C469AB291B012F0B6
:10369000020F054638D1B1F90E10002918DB01AA36
:1036A00003F05EFE002811DB029B03F47043B3F5C8
:1036B000005F14BF00270127B3F5004F37D0A3895F
:1036C0004FF4007643F40063A3810BE0A3899AB220
:1036D00012F0800F43F4006314BF40264FF40076CD
:1036E0000027A38128463146FCF7E4FD00282BD0B3
:1036F0001C4AA389AA6243F080032060A381206151
:10370000666147B911B0F0BD01F147030B600B6171
:1037100001234B61F6E7B4F90E10284601F032FAA6
:103720000028EFD0A38943F00103A381EAE7E26A0E
:103730000D4B9A42C3D1A3894FF480624FF40076B7
:1037400022651343A381CDE7A38913F4007FD9D168
:1037500004F1470243F002032260A38101232261A6
:103760006361CFE7652900087D3F00082DE9F0453A
:1037700083B0144605468A4698460A9EA2B1104B6D
:103780001F68FFF759FF01965146224643460090B5
:103790002846B847B0F1FF3F03D1002333608A23A6
:1037A0002B6003B0BDE8F085054B1F68FFF744FFB1
:1037B000044A01230196214600902846B847E9E7CC
:1037C0000C070010ECA600082DE9F0470C4682B06B
:1037D000824617461D46C9B1144B154ED3F80080DA
:1037E000D6F80090FFF728FF0195514622463B4648
:1037F00000904846C047B0F1FF3F04D13368002233
:103800002A608A221A6002B0BDE8F087074B084E92
:103810001F68D6F80080FFF70FFF01952146054A83
:10382000012300904046B847E5E700BF0C070010B1
:1038300018020010ECA6000882B071B110460AB957
:1038400002B070476FF00100002BF9D013780B60C5
:103850001078003818BF0120F2E701A9EEE700BF99
:1038600040F20C7CC1F2000C2DE9F04182B0174609
:103870001E4605468846DCF80040FFF7DDFE089A44
:10388000414601923A460346284600933346A047F4
:1038900002B0BDE8F08100BF10F0030FC9B230B430
:1038A000044610D002B303788B421ED0013A431C69
:1038B00005E0CAB113F801CB013A8C4517D013F0DB
:1038C000030F1C46F5D1032A13D86AB123788B4223
:1038D0000DD0013A631C04E013F801CB013A8C458A
:1038E00003D01846002AF7D1104630BC7047204656
:1038F000FBE741EA0125234645EA05451C4653F806
:1039000004CB85EA0C0CACF1013020EA0C0C1CF065
:10391000803FDAD1043A1C46032AEFD8D5E700BF2E
:103920002DE9F04F0D4683B00646002900F05C817A
:10393000019203F049FC019AA5F1080A02F10B0477
:10394000DAF80430162C00F29B80102100270C4678
:10395000944238BF47F00107002F40F04A8123F01E
:1039600003098945A4BF0AF1080B4F4671DADFF855
:10397000D4B30AEB0900DBF808C0844500F03D81B0
:10398000D0F804E02EF001088044D8F8048018F044
:10399000010F1CBFBE46704677D013F0010F40F0F8
:1039A000968055F8088CC8EB0A08D8F8043023F044
:1039B0000303002800F0DC80604500F0518103EB38
:1039C000090C0EEB0C07B94200F3D480C368C24661
:1039D0008168A9F10402242ACB609960D8F80C30E0
:1039E0005AF8081FCB60996000F29B81132A514658
:1039F00021D92B4608F1100153F8040BC8F8080030
:103A000068681D1D1B2AC8F80C0014D958682B1DA6
:103A100008F11801C8F8100068681D1D242AC8F8AC
:103A2000140008D15B6808F12001C8F818306B68F1
:103A30000835C8F81C302A46D3460B46C24652F811
:103A4000040B43F8040B6868486052685A60D8F861
:103A500004303A1B0F2A25D80AEB070203F00103B2
:103A600043EA0707CAF80470536843F00103536040
:103A700030465F4603F0ACFB384603B0BDE8F08F3C
:103A800024F007042146E70F62E72EF0030E0EEB49
:103A90000907B94281DCC2680AF1080B8168CA6073
:103AA0009160D6E70AEB040103F00103881843EAAA
:103AB000040442F00102CAF804404A600831436835
:103AC00043F0010343603046FFF7B6FAD0E73046D3
:103AD0001146FCF7EFFB0746002845D0DAF8043022
:103AE000A0F1080223F0010151448A4200F0128142
:103AF000A9F10402242A00F2AF80132A29460346C2
:103B000024D9AC465CF8043B0CF1040140F8043BBA
:103B1000031DD5F804E01B2AC7F804E016D9DCF829
:103B20000440242A03F1040C01F1040E44604868A7
:103B30000EF1040158600CF1040307D1DEF80420F3
:103B4000CCF804204A6808315A60083308461A46FF
:103B500050F804CB42F804CB49685960436853607D
:103B600030462946FFF768FA304603F031FB83E719
:103B700003EB090C6145AADC4746D8F80C30A9F1E3
:103B8000040257F8081F242ACB60996056D8132ADC
:103B9000394621D92B4608F1100153F8040BC8F817
:103BA000080068681D1D1B2AC8F80C0014D9586845
:103BB0002B1D08F11801C8F8100068681D1D242A83
:103BC000C8F8140008D15B6808F12001C8F8183063
:103BD0006B680835C8F81C302A46BB460B4667465A
:103BE00052F8040BC2462CE71146FCF763FB07466C
:103BF00042E70C23002733603EE7DCF804E004F1E1
:103C000010072EF0030E0EEB0900B842B8BF604655
:103C1000FFF6C3AE0AEB0403021B42F00102CBF82D
:103C200008305A603046DAF804202F4602F00103CB
:103C30001C43CAF8044003F0CBFA1DE73846294676
:103C4000CDF804C0FCF73CFEDDF804C0BB46D8F854
:103C50000430C2466746FCE62946FCF731FE7FE7A2
:103C600003EB090C04F110000EEB0C03834281DB23
:103C70004746D8F80C10A9F1040257F8080F242A77
:103C8000C160886056D8132A384624D9294608F1DD
:103C9000100051F804CBC8F808C0D5F804C00D1DB9
:103CA0001B2AC8F80CC016D9D1F804C0291D08F188
:103CB0001800C8F810C0D5F804C00D1D242AC8F893
:103CC00014C008D14A6808F12000C8F818206A68B2
:103CD0000835C8F81C202946024651F804CB42F8A2
:103CE00004CBD5F804C0C0F804C04968516008EBA3
:103CF00004021B1B43F00103CBF80820536030463D
:103D0000D8F8043003F001031C43C8F8044003F062
:103D10005FFAB1E657680AF1080B27F003074F4432
:103D200097E650462946FCF7CBFDD346D8F8043039
:103D3000C2468EE6384629460193FCF7C1FD019B39
:103D4000D5E700BF7C02001008B5838903F00903A2
:103D5000092B01D0002008BDFEF7F0FDFBE700BFF6
:103D600038B505460C4610B18369002B57D0464B39
:103D70009C4208BF6C6808D0444B9C4208BFAC68AA
:103D800003D0434B9C4208BFEC68A28993B213F462
:103D9000005F07D142F40052216FA28193B221F457
:103DA00000512167002113F0200F616034D113F01E
:103DB000040F1ED113F0100F50D013F0080F55D17F
:103DC00042F00402A2812369002B42D0A38913F0A0
:103DD000030F2FD1D4F810C02846216A63696246C8
:103DE000C4F800C0656AA847002860601ADD00209A
:103DF00038BD616B0029E6D004F14403994202D03A
:103E00002846FFF719F9236C002060636360002BDC
:103E1000D9D0E36B2360EBE74FF0FF30E8E7FEF724
:103E2000FDFDA4E70CD1A3894FF0FF3043F0200340
:103E3000A381DDE7174B18491868FFF77BFBC9E73B
:103E4000A38900224FF0FF30626043F04003A3815A
:103E5000CEE728462146FFF715FCB7E742F04002BF
:103E600009234FF0FF302B60A281C1E7284621468D
:103E7000FEF748FC0028CFD1A289A06022F00802FA
:103E8000A0611204120C9BE7A89F0008C89F0008BD
:103E9000E89F00085C9E0008493D0008024608466D
:103EA00070B410F8014B5E2C09BF4FF0010C4FF0BD
:103EB000000C4C7860440CBF61466146002302F858
:103EC00003C00133B3F5807FF9D181F0010C5CB1FF
:103ED00002F804C0034613F8011B2D290BD05D29FD
:103EE00007D019B970BC70470138FBE70C4618467B
:103EF000EEE71846F6E745785D2D14BF002601264B
:103F0000A542B8BF46F00106002EEFD102300134C1
:103F1000A54202F804C0FADCDCE700BF10B50C468D
:103F2000B1F90E1003F0F4F9002803DB636D1B18E0
:103F3000636510BDA38923F48053A381F9E700BF13
:103F400000207047F8B51E468B890C46054617467B
:103F500013F4807F06D00223B1F90E10002203F083
:103F6000DFF9A38923F48053B4F90E10A381284606
:103F70003A46334603F074F9F8BD00BF10B50C465D
:103F8000B1F90E1003F0CCF9B0F1FF3F15BF606539
:103F9000A389A38923F4805316BF43F48053A381DC
:103FA000A38110BD08B5B1F90E1003F015F908BDD5
:103FB0002DE9F04F85B01F460B4602915149039001
:103FC0000E6813F8014B31191D4691F801B01BF032
:103FD000080BF6D12D2C6FD02B2C08BF15F8014BF8
:103FE000D7F1010338BF0023102F14BF194643F047
:103FF000010129B1302C71D013B1302C7FD00A27A8
:10400000BA46BBF1000F51460CBF6FF000494FF0AC
:1040100000490192484600F0F9FE4846884651465C
:1040200000F0C6FD33190021019A5B788C4613F02D
:10403000040F1ED0303CA74225DD844594BF0023E9
:10404000012353EAD1712CD1844514BF00230123ED
:104050004445D4BF002303F00103002B21D10AFB08
:104060000C4C012115F8014B33195B7813F0040F48
:10407000E0D113F0030306D0012B14BF57233723DD
:10408000E41AA742D9DCB1F1FF3F1AD06046BBF178
:10409000000F0ED112B149B1013D156005B0BDE868
:1040A000F08F4FF0FF3115F8014BDDE7029D1560F1
:1040B000F4E7CCF10000EDE715F8014B4FF0010BF0
:1040C0008EE7DDF80CC0BBF1000F0CBF6FF00040B5
:1040D0004FF000402223CCF80030DBE72978782924
:1040E00014BF00200120582914BF014640F00101EF
:1040F000002981D010276C78BA46023581E708275D
:10410000BA467EE78C06001040F2182CC1F2000C73
:1041100008B58E46134601467246DCF80000FFF7EC
:1041200047FF08BD9446784A2DE9F04F1F461668B0
:1041300089B00B460691079013F8014B32191D46C2
:1041400092F801B01BF0080BF6D12D2C00F0AD80D9
:104150002B2C08BF15F8014BD7F1010338BF002302
:10416000102F14BF1A4643F0010262B1302C00F048
:10417000AF8043B1302C00F0C0800A2200230A2710
:10418000CDE9042303E03A46FB17CDE904234FF0C1
:1041900000084FF00049BBF1000F03D14FF0FF388A
:1041A0006FF0004940464946DDE90423CDF80CC0D4
:1041B00000F03CFE404649469246DDE9042300F00B
:1041C00035FEDDF80CC032190023CDF804C052785A
:1041D000804689460020002112F0040F31D0303C87
:1041E000A74238DD0122494501D84AD0002242EADF
:1041F000D37313F0FF0F4BD181EA090380EA080261
:1042000052EA030C14BF002301235445D4BF0023FA
:1042100003F00103002B3BD1059BDDF810C000FB30
:1042200003F201230CFB0122A0FB0C015118001921
:1042300041EBE47115F8014B3219527812F0040F7A
:10424000CDD112F0030206D0012A14BF5722372223
:10425000A41AA742C6DCB3F1FF3FDDF804C029D0A1
:1042600006460F46BBF1000F1BD1BCF1000F03D077
:104270009BB1013DCCF800503046394609B0BDE84D
:10428000F08F4045B2D942EAD37313F0FF0FB3D099
:104290004FF0FF3315F8014BCEE7069DCCF80050E8
:1042A000EAE7464261EB4107DFE715F8014B4FF0C3
:1042B000010B51E74FF0FF366FF00047BBF1000FE5
:1042C00002D000264FF00047079922220A60CCE76F
:1042D0002A78782A14BF00210121582A14BF0A46DF
:1042E00041F00102002A3FF444AF6C781022002311
:1042F0000235CDE90423102749E7082200230827C7
:10430000CDE9042343E700BF8C0600102DE9F04FF0
:104310001546564A83B099460C460B460190D2F892
:10432000008013F8016B08EB06021F4692F801C0EB
:104330001CF0080CF5D12D2E77D02B2E08BF17F8C6
:10434000016BD9F1010338BF0023B9F1100F14BF7D
:104350001A4643F001026AB1302E6BD053B1302EB1
:104360007DD049F6991A4FF00A090521C1F6991A2C
:10437000CB460FE049464FF0FF30CDF800C000F0CB
:1043800017FC4946CB4682464FF0FF3000F03EFD19
:10439000DDF800C008EB0603002210465B7813F03E
:1043A000040F1ED0303EB14525DD504594BF00239B
:1043B000012353EAD2722AD1504514BF00230123AE
:1043C0008E42D4BF002303F0010303BB0BFB00604C
:1043D000012217F8016B08EB06035B7813F0040F5A
:1043E000E0D113F0030306D0012B14BF572337236A
:1043F000F61AB145D9DCB2F1FF3F11D0BCF1000F84
:104400000CD10DB142B92C6003B0BDE8F08F4FF074
:10441000FF3217F8016BDEE77C1EF4E74042F0E75D
:104420000199222310460B60EBE717F8016B4FF060
:10443000010C86E73A78782A14BF00210121582A16
:1044400014BF0A4641F00102002A87D04FF010093C
:104450007E780F2102376FF0704ACB469AE74FF013
:10446000080907216FF0604ACB4693E78C060010DD
:1044700040F2182CC1F2000C08B58E4613460146D6
:104480007246DCF80000FFF741FF08BD00000000A5
:104490002DE9F04F87B01F460B4602927C4A0391EC
:1044A0000590166813F8014B32191D46527812F028
:1044B0000802F7D12D2C00F0AB802B2C12BF0492F8
:1044C00015F8014B0492D7F1010338BF0023102FD8
:1044D00014BF1A4643F00102A2B1302C00F09D80B7
:1044E000002B00F0C180302C00F0B2800FF2981940
:1044F000D9E900894FF0050C4FF00A0A4FF0000B84
:104500000A2715E04FEAE77B4FF0FF304FF0FF310D
:104510003A465B46BA4600F089FC804689464FF031
:10452000FF304FF0FF3152465B4600F07FFC94466F
:104530003019CDF804C0002100224078002310F08B
:10454000040F2FD0303CA74236DD01204B4501D867
:1045500042D0002040EAD17111F0FF0F43D182EA2E
:10456000080083EA090150EA010C019814BF0021F8
:1045700001218442D4BF002101F00101002932D180
:1045800002FB0BF001210AFB0300A2FB0A23C31864
:10459000121943EBE47315F8014B3019407810F011
:1045A000040FCFD110F0030006D0012814BF57200C
:1045B0003720241AA742C8DCB1F1FF3F1ED004986F
:1045C000C0B9029818B199B9039D02990D601046BF
:1045D000194607B0BDE8F08F4245BAD940EAD1711B
:1045E00011F0FF0FBBD04FF0FF3115F8014BD4E7AE
:1045F000013DEAE7524263EB4303E2E7DDF814C012
:1046000022204FF0FF324FF0FF33CCF80000D8E704
:1046100015F8014B0120049055E72A78782A14BF39
:1046200000210121582A14BF0A4641F00102002A44
:104630003FF456AF6C784FF00F0C02354FF0FF3857
:104640006FF070494FF0100A4FF0000B10276FE722
:104650004FF0070C4FF0FF386FF060494FF0080A39
:104660004FF0000B082763E74FEAE77B4FF0FF307E
:104670004FF0FF313A465B46BA4600F0D7FB804622
:1046800089464CE7AFF300809999999999999919BE
:104690008C060010AFF3008001F144032DE9F041D6
:1046A0000C46496B994217D0A66B77003A46FFF744
:1046B00037F9054668B100EB060801463246404628
:1046C000FCF7B6F80020C4F800806563A763BDE876
:1046D000F0814FF0FF30FAE74FF40071FBF7EAFD8D
:1046E00002460028F5D094F8461000F5FE73013319
:1046F00060634FF40070A0639970002094F8451037
:10470000597094F8441082F8FD112360DFE700BF70
:10471000B1F1FF3F70B50C460546164645D010B1C5
:104720008369002B64D0504B9E4208BF6E6808D04E
:104730004E4B9E4208BFAE6803D04D4B9E4208BF11
:10474000EE68B28993B213F4007F4AD013F4005F8D
:1047500001BF42F40052336F23F4005333674FF626
:10476000DF7302EA0303B3819AB212F0040F08D197
:1047700012F0100F6ED012F0080F5DD143F0040359
:10478000B381736BE4B2002B42D07268B36B9A4270
:1047900031DA33685A1E326003F8014C7268B3890B
:1047A0000132726013F4007F16D0204670BD33686A
:1047B000B1893246D6F804C006F14400F3630323FE
:1047C000B363012311F4007F02F8464FC6F840C0DE
:1047D000706332607360E8D106F1580005F088F824
:1047E000E3E706F1580005F047F8B28993B2ADE768
:1047F000FEF714F997E728463146FFF74DFF0028EA
:10480000C7D0B38913F4007F27D04FF0FF34CCE733
:104810003269002ACBD033689A42C9D213F8012CEE
:10482000591EA242C4D17268B3890132316013F4B7
:10483000007F7260B9D1CFE728463146FDF762FFAD
:104840000028DED1B389B06023F00803B0611B04F7
:104850001B0C93E712F4007FD7D106F158004FF0FC
:10486000FF3405F045F8A0E7A89F0008C89F00089E
:10487000E89F000808B540F21823C1F200030A4679
:1048800001461868FFF744FF08BD00BF70B5044635
:104890000D46164610B18369002B44D0324B9E4220
:1048A00008BF666808D0314B9E4208BFA66803D097
:1048B0002F4B9E4208BFE668B289B16993B213F0EC
:1048C000080FB16026D03169002923D013F4005FAE
:1048D000706901BF42F40052B281336F23F4005378
:1048E00008BF336733685A1A824228DA0132B16846
:1048F000EDB20139B16003F8015B71693360914237
:1049000014D0B3890A2D14BF002303F001036BB93F
:10491000284670BD20463146FDF778FEB8B9B28909
:10492000316993B2D2E7FEF779F8B7E7204631460E
:10493000FDF7E8FE002818BF4FF0FF35E8E72046F6
:104940003146FDF7DFFE58B933680122CFE7B3895E
:104950004FF0FF3543F04003B38109232360D7E7CD
:104960004FF0FF35D4E700BFA89F0008C89F00089C
:10497000E89F000808B540F21823C1F200030A4678
:1049800001461868FFF782FF08BD00BF2DE9F0411E
:104990000C4686B0054690461E4699B10F4B1F68DF
:1049A000FEF74AFE00962146424603462846B8478F
:1049B000B0F1FF3F03D1002333608A232B6006B0A0
:1049C000BDE8F081054B1F68FEF736FE009603A98F
:1049D000224603462846B847EAE700BF1007001002
:1049E0002DE9F045074687B088461446B8B1134B09
:1049F000134D1E68D5F800A0FEF71EFE0094394640
:104A0000424603465046B047B0F1FF3F04D12B6801
:104A1000002222608A221A6007B0BDE8F085074BA9
:104A2000074D1E68D5F80080FEF706FE009403A926
:104A30003A4603464046B047E6E700BF100700107D
:104A4000180200100346084619B1FF2A02D80120B7
:104A50000A7070478A224FF0FF301A60F9E700BFF2
:104A600040F2107CC1F2000C2DE9F04182B01E46EC
:104A7000054688461746DCF80040FEF7DDFD009647
:104A800041463A4603462846A04702B0BDE8F081B9
:104A9000F8B50C4605460E46002949D0FDF79EFFA5
:104AA00015B1AB69002B54D02E4B9C4208BF6C68EB
:104AB00008D02D4B9C4208BFAC6803D02B4B9C42C6
:104AC00008BFEC68A38913F4007F18BF04F15807EE
:104AD00030D028462146FDF715FE236B06463BB134
:104AE000216A2846984736EA200628BF4FF0FF364D
:104AF000A38913F0800F30D1616B41B104F14403FD
:104B0000994202D02846FEF797FA00236363A16C0E
:104B100021B12846FEF790FA0023A364002338460B
:104B2000A38104F0E5FE384604F0A0FEFDF75EFF29
:104B30003046F8BD04F15807384604F09DFEB4F93C
:104B40000C60002EC5D1384604F0D2FEFDF74EFFB2
:104B5000EEE72846FDF762FFA6E721692846FEF743
:104B60006BFAC9E7A89F0008C89F0008E89F0008E3
:104B700008B540F21823C1F2000301461868FFF798
:104B800087FF08BD38B50546074C0846002323605B
:104B900002F0ECFBB0F1FF3F00D038BD2368002BE2
:104BA000FBD02B60F9E700BF400A001000000000B6
:104BB0004A1E08BF7047C0F02481884240F2168127
:104BC000114200F01781B0FA80F3B1FA81F2A2EB42
:104BD0000303C3F11F0304A202EB03134FF000020F
:104BE0009F4600BFAFF30080B0EBC17F00BF42EB38
:104BF000020228BFA0EBC170B0EB817F00BF42EB87
:104C0000020228BFA0EB8170B0EB417F00BF42EBF6
:104C1000020228BFA0EB4170B0EB017F00BF42EB66
:104C2000020228BFA0EB0170B0EBC16F00BF42EBE6
:104C3000020228BFA0EBC160B0EB816F00BF42EB66
:104C4000020228BFA0EB8160B0EB416F00BF42EBD6
:104C5000020228BFA0EB4160B0EB016F00BF42EB46
:104C6000020228BFA0EB0160B0EBC15F00BF42EBC6
:104C7000020228BFA0EBC150B0EB815F00BF42EB46
:104C8000020228BFA0EB8150B0EB415F00BF42EBB6
:104C9000020228BFA0EB4150B0EB015F00BF42EB26
:104CA000020228BFA0EB0150B0EBC14F00BF42EBA6
:104CB000020228BFA0EBC140B0EB814F00BF42EB26
:104CC000020228BFA0EB8140B0EB414F00BF42EB96
:104CD000020228BFA0EB4140B0EB014F00BF42EB06
:104CE000020228BFA0EB0140B0EBC13F00BF42EB86
:104CF000020228BFA0EBC130B0EB813F00BF42EB06
:104D0000020228BFA0EB8130B0EB413F00BF42EB75
:104D1000020228BFA0EB4130B0EB013F00BF42EBE5
:104D2000020228BFA0EB0130B0EBC12F00BF42EB65
:104D3000020228BFA0EBC120B0EB812F00BF42EBE5
:104D4000020228BFA0EB8120B0EB412F00BF42EB55
:104D5000020228BFA0EB4120B0EB012F00BF42EBC5
:104D6000020228BFA0EB0120B0EBC11F00BF42EB45
:104D7000020228BFA0EBC110B0EB811F00BF42EBC5
:104D8000020228BFA0EB8110B0EB411F00BF42EB35
:104D9000020228BFA0EB4110B0EB011F00BF42EBA5
:104DA000020228BFA0EB0110B0EBC10F00BF42EB25
:104DB000020228BFA0EBC100B0EB810F00BF42EBA5
:104DC000020228BFA0EB8100B0EB410F00BF42EB15
:104DD000020228BFA0EB4100B0EB010F00BF42EB85
:104DE000020228BFA0EB0100104670470CBF012053
:104DF00000207047B1FA81F2C2F11F0220FA02F0DE
:104E0000704708B14FF0FF3000F00EB80029F8D01D
:104E10002DE90340FFF7CCFEBDE8064002FB00F39E
:104E2000A1EB0301704700BF704700BF4BB942B907
:104E3000002908BF002802D04FF0FF310846FFF7D5
:104E4000F3BF82B0EC462DE9005000F01BF8DDF80E
:104E500004E002B00CBC7047F8B516461F46044685
:104E60000D4601F031F800FB07F7A0FB062306FB17
:104E70000177FB18A41A65EB0305069BC3E90045FF
:104E8000F8BD00BFF8B516461F4604460D4601F0B2
:104E9000C5F900FB07F7A0FB062306FB0177FB180B
:104EA000A41A65EB0305069BC3E90045F8BD00BFE6
:104EB000036803B11B181846704700BF036813F05E
:104EC000804F14BF43F0004323F00043C0187047E5
:104ED0002DE9F84F044692460E4629B301F1FF3BF7
:104EE0000027D94603E0504505F101071CD209EB24
:104EF000070505EBD5756D1004EBC5063046FFF7C9
:104F0000DDFF8046681CAB4504EBC00008BF4FF0D6
:104F1000FF3002D0FFF7D2FF0138D045E3D9BD42C0
:104F200005F1FF39E3D100263046BDE8F88F00BF18
:104F30002C4B30B5044683B08D1E002B4BD0284639
:104F400001A9AFF300800346002823D02A46184663
:104F50000199FFF7BDFF054600281ED0FFF7AEFF01
:104F60006B68012BA06411D0002B24DB281DFFF7F8
:104F7000A5FF00232365E0640368002B10DBFFF727
:104F80009DFF03460020236103B030BD00230520B0
:104F90002361F9E720610920F6E720610920F3E7A2
:104FA000C3F3036060B101280DD002280FD00023A5
:104FB00009202361E8E7281D0123E0642365DBE77E
:104FC000094B2361E0E7094B00202361DCE7084B34
:104FD00000202361D8E7074A074913468A1AD210EE
:104FE0000192B3E70000000001550008F5540008E5
:104FF000E954000814AF000824B40008036810B591
:1050000013F0010F044607D113F0020F12D000F184
:10501000480000F0A9FC236813F0040F12D013F02D
:10502000080F17D013F0100F03D104F50C7000F027
:10503000EFFC10BD00F1480000F08EFC236813F077
:10504000040FECD104F1D00000F096FC236813F0BB
:10505000080FE7D104F5D87000F096FC2368E1E76B
:105060002DE9F04F01F1040E05461646D0F80C90DC
:10507000ADF5906DBEE80F0083B092ACD5F818B0D6
:1050800004F1040C0027BE4214BF0A260926BA46C2
:10509000ACE80F000DF10808BEE80F00ACE80F0007
:1050A000BEE80F00ACE80F009EE80F008CE80F0090
:1050B0002846216C2760FFF73BFF074607B3A36B29
:1050C00046F01006012031462A4663642B460094C0
:1050D000CDF804B0C84700282DD1002F2CD1204690
:1050E00041464FF41072FBF7A3FBBAF1080F29D128
:1050F000216C2846FFF71CFF09260746002FDED14A
:10510000236C21464FF4107240466B61FBF790FB15
:105110002B692946424630469847D8F83830314600
:105120002A4663642B460094CDF804B082460120E1
:10513000C8470028D1D00927384623B00DF5806D27
:10514000BDE8F08FBAF1070FF5D193A800F0F8FB96
:1051500038B504460D46296C2046FFF7E9FE60B9D4
:10516000D5F840C00120236921462A46C4F814C05E
:1051700098470828EFD0072801D0FBF70BF8281D27
:1051800000F0DEFB59B90F2A94BF00210121002B4A
:105190000CBF0B4641F0010333B1022003E00429A8
:1051A0008CBF02200120704700EB82021846009B52
:1051B00052681A60F7E700BF00B50A4685B00021C3
:1051C0000B460DF10C0CCDF800C0FFF7DBFF039888
:1051D00005B000BD59B90F2A94BF00210121002B51
:1051E0000CBF0B4641F0010333B1022003E0042958
:1051F0008CBF022001207047009900EB8202184604
:1052000009685160F7E700BF00B585B004AB8C4674
:10521000002143F8042D624600930B46FFF7DAFFA6
:1052200005B000BD2DE9F04F1E46D1F84C9089B075
:105230000C46174600F0080100F0030859F8043B3B
:105240000291CDF81490002E40F0CF801B028DF813
:105250001960049303238DF81830B8F1020F236D01
:1052600008BFD4F8389013F0010302BF04F15802CC
:105270000093019240F0C580D9F80030002B38D05F
:10528000022E384608BF9B46A36C07BFD9F804A07E
:1052900009F10805B9F802A009F1040518BFB9F829
:1052A00000B00F212AF001099944FFF785FF8145DD
:1052B0002BD80AF0010A2BF001030BF0010B9944E3
:1052C0004BEA4A0A48452CBF00200120BAF1010FE1
:1052D00025D049D2B8F1000F0CBF002000F001002A
:1052E000002840F0E78005F10409D9F80030002BD0
:1052F000C6D1384604A900F023FC002837D1009914
:10530000002940F0B580082032E00AF0010A0BF0D5
:10531000010B00204BEA4A0ABAF1010FD9D1B8F1CA
:10532000000F40F08B80E0B16B68284613F1020F4C
:1053300050F804AB1BD00199B3F1FF3F0A46079127
:105340000CD0FFF7B5FD4FEADA7207AB01462046F5
:1053500003F0CCFA002800F09D80079A002A40F064
:105360009E8005F1080987E7BAF1020F03D00920F2
:1053700009B0BDE8F08F2B6823F00049B8F1000FA9
:1053800042D100282AD00299D1F1010238BF00226F
:10539000B9F1000F08BF42F00102FAB1B9F1000FF4
:1053A0007DD005F1040A0395C346019D04E09945AB
:1053B0000AF1040A9B460DD950460795FFF778FD80
:1053C00007AB00220146204603F090FA0BF10103DF
:1053D0000028ECD0CB45039D61D02B68002B57DB18
:1053E00009F1010905EB890946E7C3F307421B04EC
:1053F0008DF81920049309EB820902238DF81830E7
:105400002BE70023009374E70D213846D4F820A041
:10541000FFF7D2FE8245E0D1A36A9D42DDD1002292
:105420002B1D0421C4F82890E262216363632A687B
:10543000002A52DA01221D460092D1E70D2138469A
:10544000D4F820A0FFF7B8FE82458AD1A36A9D4216
:1054500087D12846FFF732FD0F2102463846FFF775
:10546000D3FE384600212246FFF7CEFE07207FE715
:105470000F213846FFF7A0FE0E2102463846FFF7FF
:10548000C3FE38460F21174AFFF7BEFE07206FE71D
:105490000435A5E7CDF81C8005F10809ECE638468F
:1054A0000D21FFF789FEA56203462362079B0620B4
:1054B00063625DE728460435FFF700FDA5630646F5
:1054C000204603F087FA00283FF451AF38460F21F9
:1054D0003246FFF799FE07204AE709F1010005EB84
:1054E0008000B7E7FD8A000808B50223FFF79AFE9F
:1054F00008BD00BF08B50123FFF794FE08BD00BF3B
:1055000008B50023FFF78EFE08BD00BF2DE9F0416E
:105510000446E8B004290CD8DFE801F03A565403F9
:105520000F00032B05D1160C95B2AB19102B40F2CE
:10553000D580022068B0BDE8F081102A94BF002118
:105540000121002B0CBF0B4641F00103002BF0D1D1
:10555000236813F0100F40F0EE8064AD01922846EE
:1055600000F060FAA06B019A00234FF0010C0CFAD6
:1055700003F111421CBF50F8041B45F823100133FE
:10558000042BF4D1A063284600F042FA0020D1E7B2
:10559000002BCED1D4F838C092B2012515FA03F110
:1055A00004EB8300013311421CBF5CF8041B416013
:1055B000102BF3D112F4005008BFC4F838C0B9D092
:1055C0000020B7E70120B5E7591F18BF0121012BC3
:1055D0000CBF002001F001000028AAD1150C96B2E2
:1055E0007219012B14BF202010209042A1D3012B4F
:1055F00014BF4FF000084FF001080F2D94BF002793
:10560000012717EA080F94D1002F40F08680102A56
:1056100008D9A2F11007002F0CBF002101F00101F1
:10562000002986D10F2D10D8226812F0010F0CD05E
:10563000052B22F00101216000F0A780204622F016
:10564000030240F8482B00F08BF91FB1236813F0D8
:10565000040F68D1B8F1000F40F08E800F2D5ED995
:10566000002F40F08380002ED4F838C00EDD02A950
:10567000760001EBC5016246002352F8040B0133AA
:10568000B34241F8040BF8D10CEB830C9FB1102D01
:105690002CBF2846102044AA103861467E00002303
:1056A00002EBC00251F8040B0133B34242F8040B81
:1056B000F8D10CEB830CB8F1000F4ED10F2DC4F8CC
:1056C00038C002D802A800F04FF93846002F3FF446
:1056D00031AF44A800F050F900202BE7236813F005
:1056E000080F32D124AF384600F070F9A06B4FEAB2
:1056F000450C03465DB107EBC60662460023195808
:10570000F150043312F1FF32F9D100EB8C0338462B
:10571000A36300F039F900200CE737467BE702A8C5
:1057200000F026F99CE7204623F0040340F8D03B24
:1057300000F026F98EE723F0100304F50C702360C7
:10574000019200F06FF9019A07E723F0080304F5CE
:10575000D870236000F03AF9C4E70CF1040C02A8F9
:10576000C4F838C000F0F8F80020E3E644A8C5F11A
:10577000100600F005F976E702A800F0F1F8002F16
:105780003FF471AFC5F110066DE7204641F002010C
:1057900040F8481B00F0ECF857E700BF406C70473A
:1057A000F0B501F1040ECF6B0E460446ADF5117D48
:1057B0000DF1040C6D460F64BEE80F00ACE80F005D
:1057C000BEE80F00ACE80F00BEE80F00ACE80F0029
:1057D0009EE80F008CE80F004FF0FF33009300E0CD
:1057E0002F6C20463946FFF7A3FB58B923692146A1
:1057F0006A46984708280746F2D06846FFF7FEFB3E
:10580000062F03D009200DF5117DF0BD204631464D
:10581000FFF79EFC08B58446D3F83CE0CCF80C10AA
:105820001946CCF818200022C3F840E0FFF718FC16
:1058300008BD00BF426938B50446C3680D460A6416
:1058400023B10122FFF70CFCFAF7A4FC03692146FF
:1058500002202A469847072803D0082804D0FAF7E0
:1058600099FC281D00F06CF820462946FFF770FCD3
:10587000C26808B50B463AB1D1F83CC00022C3F863
:1058800040C0FFF7EDFB08BDFFF78AFFFBE700BF55
:10589000704700BF08B5014683680BB101209847E7
:1058A00008BD00BF2DE9F04102F1040ED76B06469A
:1058B0008846ADF5267D0DF1040C6C46176490AD5D
:1058C000BEE80F00ACE80F00BEE80F00ACE80F0028
:1058D000BEE80F00ACE80F009EE80F008CE80F0058
:1058E0004FF0FF33009300E0276C39462846FFF75E
:1058F0001FFB2A460C2103466846002B1ED1FFF7EA
:1059000083FC41466846B04729466A46034608205C
:10591000A3B9949B9847431F18BF01230746092842
:105920000CBF002303F00103002BDDD16846FFF715
:1059300065FB38460DF5267DBDE8F0810927F5E7C2
:1059400000F1340191E838009C46A6464CF8045D0D
:1059500090E8FF0FE54600BD90EC210B704700BFBB
:1059600080EC210B704700BF90EC200B704700BF0C
:1059700080EC200B704700BFD0EC200B704700BFBD
:10598000C0EC200B704700BFF0EC0201F0EC0211FC
:10599000F0EC0221F0EC0231F0EC0241F0EC0251AB
:1059A000F0EC0261F0EC0271F0EC0281F0EC02919B
:1059B000F0EC02A1F0EC02B1F0EC02C1F0EC02D18B
:1059C000F0EC02E1F0EC02F1704700BFE0EC020104
:1059D000E0EC0211E0EC0221E0EC0231E0EC0241EB
:1059E000E0EC0251E0EC0261E0EC0271E0EC0281DB
:1059F000E0EC0291E0EC02A1E0EC02B1E0EC02C1CB
:105A0000E0EC02D1E0EC02E1E0EC02F1704700BF13
:105A1000B0FC0181B0FC0191B0FC01A1B0FC01B16E
:105A2000704700BFA0FC0181A0FC0191A0FC01A176
:105A3000A0FC01B1704700BFEC4600B52DE9005055
:105A40002DE9FF1F4FF000032DE90C0001A9FFF71E
:105A5000A7FEDDF840E012B0704700BFEC4600B58D
:105A60002DE900502DE9FF1F4FF000032DE90C0038
:105A700001A9FFF7DFFEDDF840E012B0704700BF7C
:105A8000EC4600B52DE900502DE9FF1F4FF0000353
:105A90002DE90C0001A9FFF7EBFEDDF840E012B0A4
:105AA000704700BFEC4600B52DE900502DE9FF1FFF
:105AB0004FF000032DE90C0001ABFFF7ABFEDDF862
:105AC00040E012B0704700BFEC4600B52DE9005031
:105AD0002DE9FF1F4FF000032DE90C0001AAFFF78D
